{
  "_format": "hh-sol-artifact-1",
  "contractName": "SigningGame",
  "sourceName": "contracts/SigningGame.sol",
  "abi": [
    {
      "anonymous": false,
      "inputs": [
        {
          "indexed": false,
          "internalType": "address[2]",
          "name": "winners",
          "type": "address[2]"
        },
        {
          "indexed": false,
          "internalType": "uint256[2]",
          "name": "amounts",
          "type": "uint256[2]"
        }
      ],
      "name": "GameEnded",
      "type": "event"
    },
    {
      "anonymous": false,
      "inputs": [],
      "name": "GameStarted",
      "type": "event"
    },
    {
      "anonymous": false,
      "inputs": [
        {
          "indexed": false,
          "internalType": "address",
          "name": "player",
          "type": "address"
        }
      ],
      "name": "Joined",
      "type": "event"
    },
    {
      "inputs": [],
      "name": "GAME_CONTRIBUTION",
      "outputs": [
        {
          "internalType": "uint256",
          "name": "",
          "type": "uint256"
        }
      ],
      "stateMutability": "view",
      "type": "function"
    },
    {
      "inputs": [],
      "name": "JOIN_AMOUNT",
      "outputs": [
        {
          "internalType": "uint256",
          "name": "",
          "type": "uint256"
        }
      ],
      "stateMutability": "view",
      "type": "function"
    },
    {
      "inputs": [
        {
          "internalType": "address",
          "name": "",
          "type": "address"
        }
      ],
      "name": "balances",
      "outputs": [
        {
          "internalType": "uint256",
          "name": "",
          "type": "uint256"
        }
      ],
      "stateMutability": "view",
      "type": "function"
    },
    {
      "inputs": [],
      "name": "currentPlayers",
      "outputs": [
        {
          "internalType": "uint256",
          "name": "",
          "type": "uint256"
        }
      ],
      "stateMutability": "view",
      "type": "function"
    },
    {
      "inputs": [],
      "name": "gameStarted",
      "outputs": [
        {
          "internalType": "bool",
          "name": "",
          "type": "bool"
        }
      ],
      "stateMutability": "view",
      "type": "function"
    },
    {
      "inputs": [],
      "name": "getPlayerDetails",
      "outputs": [
        {
          "internalType": "address[4]",
          "name": "",
          "type": "address[4]"
        },
        {
          "internalType": "uint256[4]",
          "name": "",
          "type": "uint256[4]"
        }
      ],
      "stateMutability": "view",
      "type": "function"
    },
    {
      "inputs": [],
      "name": "join",
      "outputs": [],
      "stateMutability": "payable",
      "type": "function"
    },
    {
      "inputs": [
        {
          "internalType": "uint256",
          "name": "",
          "type": "uint256"
        }
      ],
      "name": "players",
      "outputs": [
        {
          "internalType": "address",
          "name": "",
          "type": "address"
        }
      ],
      "stateMutability": "view",
      "type": "function"
    },
    {
      "inputs": [],
      "name": "prizePool",
      "outputs": [
        {
          "internalType": "uint256",
          "name": "",
          "type": "uint256"
        }
      ],
      "stateMutability": "view",
      "type": "function"
    },
    {
      "inputs": [],
      "name": "sign",
      "outputs": [],
      "stateMutability": "nonpayable",
      "type": "function"
    },
    {
      "inputs": [],
      "name": "signedPlayersCount",
      "outputs": [
        {
          "internalType": "uint256",
          "name": "",
          "type": "uint256"
        }
      ],
      "stateMutability": "view",
      "type": "function"
    },
    {
      "inputs": [
        {
          "internalType": "uint256",
          "name": "",
          "type": "uint256"
        }
      ],
      "name": "winners",
      "outputs": [
        {
          "internalType": "address",
          "name": "",
          "type": "address"
        }
      ],
      "stateMutability": "view",
      "type": "function"
    },
    {
      "inputs": [],
      "name": "withdraw",
      "outputs": [],
      "stateMutability": "nonpayable",
      "type": "function"
    }
  ],
  "bytecode": "0x608060405260006004556000600660006101000a81548160ff0219169083151502179055506000600755600060085534801561003a57600080fd5b506117448061004a6000396000f3fe6080604052600436106100c25760003560e01c8063961f32001161007f578063b688a36311610059578063b688a36314610246578063c779f59714610250578063d83ae91b1461027c578063f71d96cb146102a7576100c2565b8063961f3200146101b35780639cf8ccfd146101de578063a2fb117514610209576100c2565b806327e235e3146100c75780632ca15122146101045780633ccfd60b1461011b578063554669d6146101325780635e123ce41461015d578063719ce73e14610188575b600080fd5b3480156100d357600080fd5b506100ee60048036038101906100e99190610d9b565b6102e4565b6040516100fb9190610de1565b60405180910390f35b34801561011057600080fd5b506101196102fc565b005b34801561012757600080fd5b5061013061055a565b005b34801561013e57600080fd5b50610147610670565b6040516101549190610de1565b60405180910390f35b34801561016957600080fd5b50610172610676565b60405161017f9190610e17565b60405180910390f35b34801561019457600080fd5b5061019d610689565b6040516101aa9190610de1565b60405180910390f35b3480156101bf57600080fd5b506101c861068f565b6040516101d59190610de1565b60405180910390f35b3480156101ea57600080fd5b506101f3610694565b6040516102009190610de1565b60405180910390f35b34801561021557600080fd5b50610230600480360381019061022b9190610e5e565b61069a565b60405161023d9190610e9a565b60405180910390f35b61024e6106d0565b005b34801561025c57600080fd5b506102656109ab565b60405161027392919061100b565b60405180910390f35b34801561028857600080fd5b50610291610af4565b60405161029e9190610de1565b60405180910390f35b3480156102b357600080fd5b506102ce60048036038101906102c99190610e5e565b610afa565b6040516102db9190610e9a565b60405180910390f35b60056020528060005260406000206000915090505481565b600660009054906101000a900460ff1661034b576040517f08c379a000000000000000000000000000000000000000000000000000000000815260040161034290611092565b60405180910390fd5b6064600560003373ffffffffffffffffffffffffffffffffffffffff1673ffffffffffffffffffffffffffffffffffffffff1681526020019081526020016000205410156103ce576040517f08c379a00000000000000000000000000000000000000000000000000000000081526004016103c5906110fe565b60405180910390fd5b600260085410610413576040517f08c379a000000000000000000000000000000000000000000000000000000000815260040161040a9061116a565b60405180910390fd5b60005b6008548110156104d6573373ffffffffffffffffffffffffffffffffffffffff166009826002811061044b5761044a61118a565b5b0160009054906101000a900473ffffffffffffffffffffffffffffffffffffffff1673ffffffffffffffffffffffffffffffffffffffff16036104c3576040517f08c379a00000000000000000000000000000000000000000000000000000000081526004016104ba90611205565b60405180910390fd5b80806104ce90611254565b915050610416565b50336009600854600281106104ee576104ed61118a565b5b0160006101000a81548173ffffffffffffffffffffffffffffffffffffffff021916908373ffffffffffffffffffffffffffffffffffffffff1602179055506008600081548092919061054090611254565b919050555060026008540361055857610557610b30565b5b565b6000600560003373ffffffffffffffffffffffffffffffffffffffff1673ffffffffffffffffffffffffffffffffffffffff168152602001908152602001600020549050600081116105e1576040517f08c379a00000000000000000000000000000000000000000000000000000000081526004016105d8906112e8565b60405180910390fd5b6000600560003373ffffffffffffffffffffffffffffffffffffffff1673ffffffffffffffffffffffffffffffffffffffff168152602001908152602001600020819055503373ffffffffffffffffffffffffffffffffffffffff166108fc829081150290604051600060405180830381858888f1935050505015801561066c573d6000803e3d6000fd5b5050565b6103e881565b600660009054906101000a900460ff1681565b60075481565b606481565b60045481565b600981600281106106aa57600080fd5b016000915054906101000a900473ffffffffffffffffffffffffffffffffffffffff1681565b600660009054906101000a900460ff1615610720576040517f08c379a000000000000000000000000000000000000000000000000000000000815260040161071790611354565b60405180910390fd5b6004805410610764576040517f08c379a000000000000000000000000000000000000000000000000000000000815260040161075b906113c0565b60405180910390fd5b6103e834146107a8576040517f08c379a000000000000000000000000000000000000000000000000000000000815260040161079f90611452565b60405180910390fd5b336000600454600481106107bf576107be61118a565b5b0160006101000a81548173ffffffffffffffffffffffffffffffffffffffff021916908373ffffffffffffffffffffffffffffffffffffffff1602179055506103e8600560003373ffffffffffffffffffffffffffffffffffffffff1673ffffffffffffffffffffffffffffffffffffffff168152602001908152602001600020819055506004600081548092919061085790611254565b91905055507f7073afa60b48e833a1a66ebb442bc8e0d19e9f3cc05f34bdcd1da22c8d87f2753360405161088b9190610e9a565b60405180910390a160048054036109a9576001600660006101000a81548160ff02191690831515021790555060005b600481101561097b576064600560008084600481106108dc576108db61118a565b5b0160009054906101000a900473ffffffffffffffffffffffffffffffffffffffff1673ffffffffffffffffffffffffffffffffffffffff1673ffffffffffffffffffffffffffffffffffffffff16815260200190815260200160002060008282546109479190611472565b9250508190555060646007600082825461096191906114a6565b92505081905550808061097390611254565b9150506108ba565b507f762f260439bb4be3ef6e4dc2786e2e7bd187d3d80b79057d7a424fe98563e33560405160405180910390a15b565b6109b3610cca565b6109bb610cec565b6109c3610cec565b60005b6004811015610a7257600560008083600481106109e6576109e561118a565b5b0160009054906101000a900473ffffffffffffffffffffffffffffffffffffffff1673ffffffffffffffffffffffffffffffffffffffff1673ffffffffffffffffffffffffffffffffffffffff16815260200190815260200160002054828260048110610a5657610a5561118a565b5b6020020181815250508080610a6a90611254565b9150506109c6565b5060008181600480602002604051908101604052809291908260048015610ae4576020028201915b8160009054906101000a900473ffffffffffffffffffffffffffffffffffffffff1673ffffffffffffffffffffffffffffffffffffffff1681526020019060010190808311610a9a575b5050505050915092509250509091565b60085481565b60008160048110610b0a57600080fd5b016000915054906101000a900473ffffffffffffffffffffffffffffffffffffffff1681565b600060405180604001604052806064603c600754610b4e91906114da565b610b58919061154b565b815260200160646028600754610b6e91906114da565b610b78919061154b565b815250905060005b6002811015610c3e57818160028110610b9c57610b9b61118a565b5b60200201516005600060098460028110610bb957610bb861118a565b5b0160009054906101000a900473ffffffffffffffffffffffffffffffffffffffff1673ffffffffffffffffffffffffffffffffffffffff1673ffffffffffffffffffffffffffffffffffffffff1681526020019081526020016000206000828254610c2491906114a6565b925050819055508080610c3690611254565b915050610b80565b507f151752c0151c61ba812b03fe9cd4ec909dc717b6aec3e88ce701f22f73fbb3f2600982604051610c719291906116e5565b60405180910390a1600080610c869190610d0e565b60006004819055506000600660006101000a81548160ff0219169083151502179055506000600781905550600060088190555060096000610cc79190610d2a565b50565b6040518060800160405280600490602082028036833780820191505090505090565b6040518060800160405280600490602082028036833780820191505090505090565b5060008155600101600081556001016000815560010160009055565b506000815560010160009055565b600080fd5b600073ffffffffffffffffffffffffffffffffffffffff82169050919050565b6000610d6882610d3d565b9050919050565b610d7881610d5d565b8114610d8357600080fd5b50565b600081359050610d9581610d6f565b92915050565b600060208284031215610db157610db0610d38565b5b6000610dbf84828501610d86565b91505092915050565b6000819050919050565b610ddb81610dc8565b82525050565b6000602082019050610df66000830184610dd2565b92915050565b60008115159050919050565b610e1181610dfc565b82525050565b6000602082019050610e2c6000830184610e08565b92915050565b610e3b81610dc8565b8114610e4657600080fd5b50565b600081359050610e5881610e32565b92915050565b600060208284031215610e7457610e73610d38565b5b6000610e8284828501610e49565b91505092915050565b610e9481610d5d565b82525050565b6000602082019050610eaf6000830184610e8b565b92915050565b600060049050919050565b600081905092915050565b6000819050919050565b610ede81610d5d565b82525050565b6000610ef08383610ed5565b60208301905092915050565b6000602082019050919050565b610f1281610eb5565b610f1c8184610ec0565b9250610f2782610ecb565b8060005b83811015610f58578151610f3f8782610ee4565b9650610f4a83610efc565b925050600181019050610f2b565b505050505050565b600060049050919050565b600081905092915050565b6000819050919050565b610f8981610dc8565b82525050565b6000610f9b8383610f80565b60208301905092915050565b6000602082019050919050565b610fbd81610f60565b610fc78184610f6b565b9250610fd282610f76565b8060005b83811015611003578151610fea8782610f8f565b9650610ff583610fa7565b925050600181019050610fd6565b505050505050565b6000610100820190506110216000830185610f09565b61102e6080830184610fb4565b9392505050565b600082825260208201905092915050565b7f47616d65206861736e2774207374617274656420796574000000000000000000600082015250565b600061107c601783611035565b915061108782611046565b602082019050919050565b600060208201905081810360008301526110ab8161106f565b9050919050565b7f4e6f7420656e6f7567682062616c616e636520746f207369676e000000000000600082015250565b60006110e8601a83611035565b91506110f3826110b2565b602082019050919050565b60006020820190508181036000830152611117816110db565b9050919050565b7f54776f20706c6179657273206861766520616c7265616479207369676e656400600082015250565b6000611154601f83611035565b915061115f8261111e565b602082019050919050565b6000602082019050818103600083015261118381611147565b9050919050565b7f4e487b7100000000000000000000000000000000000000000000000000000000600052603260045260246000fd5b7f596f75206861766520616c7265616479207369676e6564000000000000000000600082015250565b60006111ef601783611035565b91506111fa826111b9565b602082019050919050565b6000602082019050818103600083015261121e816111e2565b9050919050565b7f4e487b7100000000000000000000000000000000000000000000000000000000600052601160045260246000fd5b600061125f82610dc8565b91507fffffffffffffffffffffffffffffffffffffffffffffffffffffffffffffffff820361129157611290611225565b5b600182019050919050565b7f4e6f2062616c616e636520746f20776974686472617700000000000000000000600082015250565b60006112d2601683611035565b91506112dd8261129c565b602082019050919050565b60006020820190508181036000830152611301816112c5565b9050919050565b7f47616d6520697320616c72656164792073746172746564000000000000000000600082015250565b600061133e601783611035565b915061134982611308565b602082019050919050565b6000602082019050818103600083015261136d81611331565b9050919050565b7f416c6c20706c6179657220736c6f747320617265206f63637570696564000000600082015250565b60006113aa601d83611035565b91506113b582611374565b602082019050919050565b600060208201905081810360008301526113d98161139d565b9050919050565b7f596f75206d7573742073656e642065786163746c79203130303020776569207460008201527f6f206a6f696e0000000000000000000000000000000000000000000000000000602082015250565b600061143c602683611035565b9150611447826113e0565b604082019050919050565b6000602082019050818103600083015261146b8161142f565b9050919050565b600061147d82610dc8565b915061148883610dc8565b92508282039050818111156114a05761149f611225565b5b92915050565b60006114b182610dc8565b91506114bc83610dc8565b92508282019050808211156114d4576114d3611225565b5b92915050565b60006114e582610dc8565b91506114f083610dc8565b92508282026114fe81610dc8565b9150828204841483151761151557611514611225565b5b5092915050565b7f4e487b7100000000000000000000000000000000000000000000000000000000600052601260045260246000fd5b600061155682610dc8565b915061156183610dc8565b9250826115715761157061151c565b5b828204905092915050565b600060029050919050565b600081905092915050565b6000819050919050565b60008160001c9050919050565b600073ffffffffffffffffffffffffffffffffffffffff82169050919050565b60006115dc6115d78361159c565b6115a9565b9050919050565b60006115ef82546115c9565b9050919050565b6000600182019050919050565b61160c8161157c565b6116168184611587565b925061162182611592565b8060005b8381101561165957611636826115e3565b6116408782610ee4565b965061164b836115f6565b925050600181019050611625565b505050505050565b600060029050919050565b600081905092915050565b6000819050919050565b6000602082019050919050565b61169781611661565b6116a1818461166c565b92506116ac82611677565b8060005b838110156116dd5781516116c48782610f8f565b96506116cf83611681565b9250506001810190506116b0565b505050505050565b60006080820190506116fa6000830185611603565b611707604083018461168e565b939250505056fea2646970667358221220bb14205c0a3a5c7d92cc03e8207de3efd8bf61357623df430c66f4353075c07a64736f6c63430008130033",
  "linkReferences": {},
  "deployedLinkReferences": {}
}